:020000040800F2
:1000000000000320993B0008353B0008373B0008FF
:10001000393B00083B3B00083D3B00080000000066
:100020000000000000000000000000003F3B00084E
:10003000413B000800000000433B0008453B00082E
:10004000E93B0008E93B0008E93B0008E93B000800
:10005000E93B0008E93B0008E93B0008E93B0008F0
:10006000E93B0008E93B0008E93B0008E93B0008E0
:10007000E93B0008E93B0008E93B0008E93B0008D0
:10008000E93B0008E93B0008E93B0008E93B0008C0
:10009000E93B0008E93B0008E93B0008E93B0008B0
:1000A000E93B0008E93B0008E93B0008E93B0008A0
:1000B000E93B0008E93B0008E93B0008E93B000890
:1000C000E93B0008E93B0008E93B0008E93B000880
:1000D000E93B0008E93B0008E93B0008E93B000870
:1000E000E93B0008E93B0008E93B0008E93B000860
:1000F000E93B0008E93B0008E93B0008E93B000850
:10010000E93B0008E93B0008E93B0008E93B00083F
:10011000E93B0008E93B0008E93B0008E93B00082F
:10012000E93B0008E93B0008E93B0008E93B00081F
:10013000E93B0008E93B0008E93B0008E93B00080F
:10014000E93B0008E93B0008E93B0008E93B0008FF
:10015000E93B0008E93B0008E93B0008E93B0008EF
:10016000E93B0008E93B0008E93B0008E93B0008DF
:10017000E93B0008E93B0008E93B000800000000FB
:10018000E93B0008E93B0008E93B0008E93B0008BF
:10019000E93B0008E93B0008E93B0008E93B0008AF
:0C01A000E93B0008E93B0008E93B0008CF
:1001AC0010B5054C237833B9044B13B10448AFF3A5
:1001BC0000800123237010BD80000020000000008F
:1001CC00443C000808B5034B1BB103490348AFF38B
:1001DC00008008BD0000000084000020443C0008A2
:1001EC0053B94AB9002908BF00281CBF4FF0FF3192
:1001FC004FF0FF3000F072B9ADF1080C6DE904CE90
:10020C0000F006F8DDF804E0DDE9022304B07047E5
:10021C002DE9F047089E04468846002B4BD18A42B4
:10022C00154667D9B2FA82F24AB1C2F1200701FA37
:10023C0002F320FA07F7954047EA030894404FEA87
:10024C00154E230CB8FBFEF71FFA85FC0EFB178826
:10025C0043EA084307FB0CF1994209D9EB1807F163
:10026C00FF3080F01B81994240F21881023F2B44F1
:10027C005B1AA4B2B3FBFEF00EFB103344EA03444A
:10028C0000FB0CFCA44509D92C1900F1FF3380F0BC
:10029C000781A44540F2048102382C4440EA07400F
:1002AC00A4EB0C0400271EB1D4400023C6E9004384
:1002BC003946BDE8F0878B4209D9002E00F0EB805F
:1002CC000027C6E9000138463946BDE8F087B3FA85
:1002DC0083F7002F47D18B4202D3824200F2FA807F
:1002EC00841A61EB030301209846002EE0D0C6E986
:1002FC000048DDE702B9FFDEB2FA82F2002A40F0D4
:10030C008F80491B4FEA154E1FFA85F80127B1FB68
:10031C00FEFC230C0EFB1C1143EA014308FB0CF101
:10032C00994207D9EB180CF1FF3002D2994200F236
:10033C00CD808446591AA3B2B1FBFEF00EFB10140B
:10034C0043EA044408FB00F8A04507D92C1900F136
:10035C00FF3302D2A04500F2B6801846A4EB080485
:10036C0040EA0C409FE7C7F1200CBB4022FA0CFE80
:10037C004EEA030E01FA07F420FA0CF521FA0CF3FD
:10038C004FEA1E482543B3FBF8F92C0C08FB193334
:10039C001FFA8EFA44EA034309FB0AF49C4202FA60
:1003AC0007F200FA07F10BD91EEB030309F1FF303A
:1003BC0080F087809C4240F28480A9F1020973444A
:1003CC001B1BADB2B3FBF8F008FB103345EA03443A
:1003DC0000FB0AFAA24508D91EEB040400F1FF3316
:1003EC006BD2A24569D90238744440EA0940A0FB9B
:1003FC000289A4EB0A044C45C2464B4654D351D057
:10040C00002E69D0B1EB0A0564EB030404FA0CFC72
:10041C00FD40FC404CEA0505C6E90054002747E7BF
:10042C00C2F1200320FA03F7954001FA02F021FAF9
:10043C0003F34FEA154E3843010CB3FBFEF71FFADA
:10044C0085F80EFB173341EA034107FB08F38B4297
:10045C0004FA02F407D9691807F1FF3C2FD28B423A
:10046C002DD9023F2944CB1A81B2B3FBFEF00EFB0F
:10047C00103341EA034100FB08F38B4207D969189A
:10048C0000F1FF3C17D28B4215D902382944C91A06
:10049C0040EA07473BE73746304609E70746E7E6B9
:1004AC001846FBE64145ABD2B8EB020A69EB0E02EB
:1004BC0001381346A4E76046E9E7184695E7674616
:1004CC00D1E781467CE702382C4447E7ACF1020CBB
:1004DC002B442FE7384608E73746E9E6704700BF5C
:1004EC00F02070474FF4A070704708B500F070FA18
:1004FC0008BD08B52920FFF7F8FF08BD08B528206E
:10050C00FFF7F3FF08BD08B500F046FA08BD08B5C3
:10051C0000F0DCF9CA20FFF7E8FFC320FFF7F3FF78
:10052C000820FFF7F0FF5020FFF7EDFFCF20FFF77B
:10053C00DCFF0020FFF7E7FFC120FFF7E4FF3020CE
:10054C00FFF7E1FFED20FFF7D0FF6420FFF7DBFFA3
:10055C000320FFF7D8FF1220FFF7D5FF8120FFF70C
:10056C00D2FFE820FFF7C1FF8520FFF7CCFF00206A
:10057C00FFF7C9FF7820FFF7C6FFCB20FFF7B5FFC9
:10058C003920FFF7C0FF2C20FFF7BDFF0020FFF73D
:10059C00BAFF3420FFF7B7FF0220FFF7B4FFF720B4
:1005AC00FFF7A3FF2020FFF7AEFFEA20FFF79DFF28
:1005BC000020FFF7A8FF0020FFF7A5FFB120FFF7F1
:1005CC0094FF0020FFF79FFF1B20FFF79CFFB62036
:1005DC00FFF78BFF0A20FFF796FFA220FFF793FF90
:1005EC00C020FFF782FF1020FFF78DFFC120FFF71F
:1005FC007CFF1020FFF787FFC520FFF776FF452013
:10060C00FFF781FF1520FFF77EFFC720FFF76DFF77
:10061C009020FFF778FF3620FFF767FFC820FFF721
:10062C0072FFF220FFF761FF0020FFF76CFFB02094
:10063C00FFF75BFFC220FFF766FFB620FFF755FF01
:10064C000A20FFF760FFA720FFF75DFF2720FFF7C9
:10065C005AFF0420FFF757FF2A20FFF746FF002020
:10066C00FFF751FF0020FFF74EFF0020FFF74BFF75
:10067C00EF20FFF748FF2B20FFF737FF0020FFF795
:10068C0042FF0020FFF73FFF0120FFF73CFF3F2018
:10069C00FFF739FFF620FFF728FF0120FFF733FFA4
:1006AC000020FFF730FF0620FFF72DFF2C20FFF76F
:1006BC001CFFC82000F0D0F92620FFF716FF012000
:1006CC00FFF721FFE020FFF710FF0F20FFF71BFFC4
:1006DC002920FFF718FF2420FFF715FF0C20FFF748
:1006EC0012FF0E20FFF70FFF0920FFF70CFF4E2023
:1006FC00FFF709FF7820FFF706FF3C20FFF703FF09
:10070C000920FFF700FF1320FFF7FDFE0520FFF780
:10071C00FAFE1720FFF7F7FE1120FFF7F4FE00207A
:10072C00FFF7F1FEE120FFF7E0FE0020FFF7EBFE04
:10073C001620FFF7E8FE1B20FFF7E5FE0420FFF76D
:10074C00E2FE1120FFF7DFFE0720FFF7DCFE312071
:10075C00FFF7D9FE3320FFF7D6FE4220FFF7D3FE7A
:10076C000520FFF7D0FE0C20FFF7CDFE0A20FFF787
:10077C00CAFE2820FFF7C7FE2F20FFF7C4FE0F206C
:10078C00FFF7C1FE1120FFF7B0FEC82000F064F99E
:10079C002920FFF7AAFE2C20FFF7A7FE08BD08B5FD
:1007AC0000F032F908BD08B500F090F80321D32011
:1007BC00FFF7F5FF80B208BD00B589B000210191AB
:1007CC00124B5A6C42F480125A645A6C02F4801226
:1007DC000192019A02911A6B42F020021A631B6B70
:1007EC0003F020030293029B4FF4607303930223E4
:1007FC0004930593012306930523079303A9044847
:10080C0001F0CCF809B05DF804FB00BF00380240E1
:10081C000014024010B5104802F0AEFC00B110BD3F
:10082C000D4C0E4B23601823E3610023A36063611E
:10083C002361A3620722E262E36023624FF4007239
:10084C00A26163624FF4827363602046FFF7B4FFCA
:10085C00204602F098F9E2E79C000020005001408D
:10086C0008B5034802F0CFF9FFF7D4FF08BD00BF6D
:10087C009C00002000B583B002A921F8020D064BA4
:10088C001B680122054802F0D4F910B903B05DF8D9
:10089C0004FBFFF7E5FFF9E7380000209C0000207F
:1008AC0000B583B0074B1B68024601A9064802F04D
:1008BC00AFFB18B9019803B05DF804FBFFF7D0FF4C
:1008CC00F8E700BF380000209C0000202F4B93F865
:1008DC00583003B170472DE9F04188B001262B4BFD
:1008EC0083F8586000250095294C236B43F00803CE
:1008FC002363236B03F008030093009B4FF4005316
:10090C000393049605954FF00208CDF81880214FFB
:10091C0003A9384601F042F80195236B43F0080314
:10092C002363236B03F008030193019B4FF4805363
:10093C00039304960595CDF8188003A9384601F069
:10094C002DF80295236B43F004032363236B03F010
:10095C0004030293029B0427039704960595CDF894
:10096C001880A4F5405403A9204601F017F82A4634
:10097C003946204601F0A0F932463946204601F0AE
:10098C009BF9FFF747FF08B0BDE8F0819C00002001
:10099C0000380240000C024038B5054601224FF4E5
:1009AC000051094801F088F9084C00220421204626
:1009BC0001F082F92846FFF75DFF01220421204651
:1009CC0001F07AF938BD00BF000C0240000802406B
:1009DC0038B5054600224FF40051094801F06CF976
:1009EC00084C00220421204601F066F92846FFF746
:1009FC0041FF01220421204601F05EF938BD00BF01
:100A0C00000C024000080240F8B507460E46104C98
:100A1C0000220421204601F04FF90E4D00224FF424
:100A2C000051284601F048F93846FFF723FF3046BD
:100A3C00FFF736FF064601224FF40051284601F01D
:100A4C003BF901220421204601F036F93046F8BD6D
:100A5C0000080240000C024008B500F099FC08BDEB
:100A6C0030B58FB000220192484B596C41F0806137
:100A7C005964596C01F08061019101990292196BD2
:100A8C0041F400011963196B01F400010291029900
:100A9C000392196B41F001011963196B01F001010B
:100AAC00039103990492196B41F002011963196BBC
:100ABC0001F00201049104990592196B41F00401B3
:100ACC001963196B01F00401059105990692196BD4
:100ADC0041F008011963196B01F0080106910699A0
:100AEC000792196B41F020011963196B01F0200179
:100AFC00079107990892196B41F0400119631B6B20
:100B0C0003F040030893089B41F658030993022312
:100B1C000A930B920C930E230D9309A91C4800F019
:100B2C003DFF4FF4706309931A4D09A9284600F054
:100B3C0035FF4FF49863099309A9174800F02EFF6D
:100B4C004823099309A9154800F028FF4FF4806346
:100B5C00099309A9124800F021FF4FF40C63099383
:100B6C00104C09A9204600F019FF0323099309230F
:100B7C000D9309A9284600F011FF4FF4A0530993D7
:100B8C0009A9204600F00AFF0FB030BD0038024022
:100B9C00000002400004024000080240000C024029
:100BAC000014024000180240F0B583B004460D4614
:100BBC0016461F4611484FF44033436000238360B0
:100BCC00089BC3600E4B036000F09CFD08B103B0A2
:100BDC00F0BD2146094800F07DFE0028F7D10097B2
:100BEC0033462A460999054800F0B9FD0028EED194
:100BFC000A21024800F0CFFDE9E700BFF800002011
:100C0C0000B0024008B5024B1B689B6A984708BDB0
:100C1C00F402002008B5024B1B68DB6A984708BD3C
:100C2C00F402002070B58EB005460E4600240194E7
:100C3C00FFF7E8FF02900394FFF7ECFF0490059494
:100C4C000A96FF23069307948DF834408DF83540AF
:100C5C008DF836404FF4C063089307230993FFF7D0
:100C6C00D1FF0B90FFF7D6FF0C900F4C04F1400610
:100C7C002A4601A9304601F039FA6800421993005E
:100C8C0023444FF0FF32C3F8EC20084AC3F8F0209D
:100C9C00284483001C444FF07F43C4F8E8303046AE
:100CAC0001F052FA0EB070BDF80000204C0000208C
:100CBC00014BC3F800017047F8000020044AD2F839
:100CCC00003103EB430399000A44C2F8E800704773
:100CDC00F8000020044AD2F8003103EB43039900DA
:100CEC000A44C2F8F0007047F800002038B5224CD6
:100CFC00224B2364092363650123A3651D23E3654C
:100D0C000323236640F20D13636640F24313A3667C
:100D1C0040F21713E36640F247132367002584F86B
:100D2C00765084F8745084F875500823C4F8043154
:100D3C00C023C4F814310423C4F81C314FF400331D
:100D4C00C4F8283104F5827001F03AFD6564A5649D
:100D5C00E5642565FFF784FE04F1400001F04CF9D1
:100D6C00074B084A13601B68984700F083FA064843
:100D7C00FFF7B0FF284638BDF8000020006801409E
:100D8C0000000020F40200204C000020044AD2F89D
:100D9C00003103EB430399000A44D2F8F00070478A
:100DAC00F8000020F0B583B007460C4AD2F8004199
:100DBC00342303FB0423D3F89C50FFF723FF064690
:100DCC00FFF728FF0197002300930346324629467C
:100DDC002046FFF7E9FE03B0F0BD00BFF80000208D
:100DEC0008B5034B1B689B6803B1984708BD00BF4F
:100DFC00F4020020F8B507460C461646074AD2F80E
:100E0C000031342101FB0323D3F89C50FFF7FAFE89
:100E1C0000FB047045F82060F8BD00BFF80000200E
:100E2C002DE9F04F83B081460F460092364AD2F836
:100E3C00003103EB430399000A44D2F8F030DA880E
:100E4C0001929D8805F1070B4FEAEB0B4FEACB089B
:100E5C005FFA88F8EBB2A8EB03085FFA88F84FF05A
:100E6C00000A37E0009AD65C002415E00099CB5CB0
:100E7C00567846EA0326F7E7234AD2F8003103EB0B
:100E8C00430399000A4409EB0400D2F8EC203946DC
:100E9C0080B2FFF7AFFF0134A54217D92B1B434497
:100EAC00013B012202FA03F33342E5D0164AD2F891
:100EBC00003103EB430399000A4409EB0400D2F818
:100ECC00E820394680B2FFF795FFE4E70137BFB25F
:100EDC000AF1010A019B534512D90AFB0BF3009A44
:100EEC001A44BBF1010FBDD0BBF1020FBED000996B
:100EFC00CB5C5678360246EA034693781E43B3E73A
:100F0C0003B0BDE8F08F00BFF800002038B50B4CE3
:100F1C00D4F8003103EB43039D002C44D4F8F0309B
:100F2C001C68A2F12005DA8802FB05F29B880733C6
:100F3C00DB1003FB0242FFF773FF38BDF800002003
:100F4C002DE9F04106460F461546984613460024F7
:100F5C0001E0013413465A1C1B78002BF9D1FFF722
:100F6C0051FE2A4AD2F8003103EB430399000A449C
:100F7C00D2F8F0309A88B0FBF2F0B8F1010F04D03F
:100F8C00B8F1020F09D0002422E0031B03FB02F38B
:100F9C00C3F34F031E44B6B2F5E7001B10FB02F07F
:100FAC0016FA80F6B6B2EEE715F8012B3946304644
:100FBC00FFF7ACFF154AD2F8003103EB430399005D
:100FCC000A44D2F8F0309B881E44B6B20134A4B265
:100FDC0095F80080FFF716FE0C4AD2F8003103EBAF
:100FEC00430399000A44D2F8F0309B8803FB1400A9
:100FFC0080B2984234BF00200120B8F1000F08BF26
:10100C0000200028D0D1BDE8F08100BFF8000020FE
:10101C0038B505460C46FFF7B9FEC18811FB05F142
:10102C000323224689B20020FFF78AFF38BD000057
:10103C0030B58FB000250195574B9A6B42F00102E9
:10104C009A639A6B02F001020192019A02951A6B53
:10105C0042F480021A631A6B02F480020292029A22
:10106C0003951A6B42F002021A631A6B02F0020229
:10107C000392039A04951A6B42F004021A631A6BDA
:10108C0002F004020492049A05951A6B42F00802CD
:10109C001A631A6B02F008020592059A06951A6BF0
:1010AC0042F010021A631A6B02F010020692069AB2
:1010BC0007951A6B42F020021A631A6B02F0200299
:1010CC000792079A08951A6B42F040021A631B6B41
:1010DC0003F040030893089B02230A930C930B958F
:1010EC000C230D930EAC602344F8143D21462B4881
:1010FC0000F054FC012309932146294800F04EFCD2
:10110C004CF2037309932146264800F047FC4FF636
:10111C00837309932146244800F040FC4FF63F03AB
:10112C0009932146214800F039FC48F23313099306
:10113C0021461F4800F032FC1E4C65608023A360E2
:10114C004FF40073E3604FF4806323614FF48053DA
:10115C0063614FF48043A361E5614FF40033236274
:10116C0065620323A362E5622563134B2360C4F815
:10117C00904004F16003A363204600F051FA20462E
:10118C0000F0E8F92A462946382000F027F93820E3
:10119C0000F058F90FB030BD003802400004024096
:1011AC0000080240000C02400010024000140240F3
:1011BC00001802402C020020106402402DE9F04F70
:1011CC0083B083464FF00009CDF80490284C0126DB
:1011DC00C4F894604FF00808C4F89880C4F89C6078
:1011EC00C4F8A09004F1940704F160054FF6FF7267
:1011FC003946284601F037FC304600F0C9F8022386
:10120C00C4F89430C4F89880C4F89C60C4F8A090DA
:10121C004FF6FF723946284601F025FC0323C4F82B
:10122C009430C4F898804FF0040AC4F89CA0C4F819
:10123C00A0904FF6FF723946284601F014FC4FF48B
:10124C000C730193C4F894A0C4F89880C4F89C6003
:10125C00019BC4F8A0304FF6FF723946284601F0C6
:10126C0002FC5946284601F01BFC03B0BDE8F08F88
:10127C002C02002010B51C4C1C4B23660223C4F816
:10128C00A4300721C4F8A8100422C4F8AC20C4F878
:10129C00B010C4F8B430C4F8B830C4F8BC30012372
:1012AC0063660023A366E26610222267402262670F
:1012BC004FF4C072A267E3674FF40062C4F8802059
:1012CC00C4F884304FF40053C4F88830FFF7B0FEF4
:1012DC0004F1A40104F1600001F0A6FB40F26A5095
:1012EC00FFF76CFF10BD00BF2C020020400100A0D6
:1012FC0010B504460E4B18784FF47A73B3FBF0F329
:10130C000C4A1068B0FBF3F000F0A8F868B90F2C89
:10131C0001D901200AE0002221464FF0FF3000F0F5
:10132C005DF8034B5C60002000E0012010BD00BFA5
:10133C00740000207C00002008B50B4B1A6842F4A6
:10134C0000721A601A6842F480621A601A6842F4D9
:10135C0080721A60032000F02FF80020FFF7C8FFFE
:10136C0002F03CFA002008BD003C0240034A116820
:10137C00034B1B780B441360704700BFF80200202E
:10138C0074000020014B1868704700BFF802002061
:10139C0038B50446FFF7F6FF0546B4F1FF3F02D01F
:1013AC00044B1B781C44FFF7EDFF401BA042FAD303
:1013BC0038BD00BF74000020074AD36823F4E063F3
:1013CC001B041B0C000200F4E060184340F0BF60EB
:1013DC0040F40030D060704700ED00E030B4174BA3
:1013EC00DB68C3F30223C3F10704042C28BF0424D5
:1013FC001D1D062D18D9033B4FF0FF3505FA04F4DB
:10140C0021EA0401994005FA03F322EA0303194384
:10141C0000280BDB0901C9B200F1604000F5614006
:10142C0080F8001330BC70470023E5E700F00F0094
:10143C000901C9B2024B1954F4E700BF00ED00E0FA
:10144C0014ED00E000F01F02400901239340024A12
:10145C0042F82030704700BF00E100E00138B0F1E5
:10146C00807F0AD2064B5860064AF02182F823107E
:10147C000020986007221A6070470120704700BF57
:10148C0010E000E000ED00E00268D3B2103B0B4925
:10149C00A1FB03131B090A49C95CC165032B06D8C0
:1014AC0022F47F7222F003028265806D704722F471
:1014BC007F7222F0030204328265F6E7ABAAAAAA75
:1014CC0038790008836A826992B9012B0AD01BB162
:1014DC00022B01D000207047C36A13F0807F2CD1FF
:1014EC0000207047C36AB3F1C07F28D0002070473A
:1014FC00B2F5005F05D0022B29D9032B15D00020A3
:10150C007047032B03D8DFE803F01C041C0A0020EF
:10151C007047C36A13F0807F15D100207047C36AEF
:10152C00B3F1C07F11D000207047C36A13F0807FE5
:10153C0001D0012070470020704701207047012026
:10154C00704701207047012070470120704701202F
:10155C007047000070B50446FFF714FF002C5BD0F9
:10156C000546002384F83430022384F83530226891
:10157C00136823F00103136023681A6812F0010F3B
:10158C000AD0FFF7FFFE401B0528F5D92023636521
:10159C00032084F8350070BD1A682048104061683B
:1015AC00A2680A43E1680A4321690A4361690A4354
:1015BC00A1690A43E1690A43216A0A430243616A49
:1015CC0004291ED01A602668756925F00705636A20
:1015DC001D43042B07D1A36A1D43E36A1BB12046AC
:1015EC00FFF770FF90B975612046FFF74DFFE26D74
:1015FC003F239340836000206065012384F83530DD
:10160C00C9E7E16A206B01430A43DBE740236365CA
:10161C00012084F83500BEE70120BCE73F8010F0C4
:10162C0030B338B5044690F83530DBB2022B21D0FC
:10163C000268136823F001031360036800251D6022
:10164C0003685D6003689D600368DD6003681D616D
:10165C00036821225A61FFF717FFE26D3F23934085
:10166C008360656584F8355084F83450284638BD5D
:10167C00012070470220FAE770B40668746C04F01D
:10168C004044039D45EA03431C4374640368DA63D6
:10169C004368B3F5403F03D00368D96070BC704712
:1016AC0001F07F4601F47F0301F47F45CAB28468E0
:1016BC0094B1012C0ED0022C11D0032C17D0360F64
:1016CC001B0D2D0B190241EA051141EA063141EAC5
:1016DC00121101E021F07F4103689963DEE7DB0C16
:1016EC00AD0AD90241EA451141EAD201F4E7F60FFD
:1016FC00DB0CED0A990241EA451141EAC63141EA97
:10170C00D201E9E748B310B5044690F83930FBB183
:10171C00022384F839302268136823F4403361685B
:10172C000B4313602268536B23F00703A1680B4330
:10173C0053632268136C23F47F5323F03F03E16857
:10174C000B4313640020E063012384F8393010BD8F
:10175C0080F8383002F05EF8DAE70120704710B5F7
:10176C0082B090F83840012C13D00446012084F844
:10177C003800022084F83900049800902046FFF7C6
:10178C007BFF2268136843F001031360002002B052
:10179C0010BD0220FBE770B582B004460D46002355
:1017AC00019303681B6813F0010F2AD12368DA69CF
:1017BC0012F0200F03D15B6A13F0200F7FD0FFF7DC
:1017CC00E1FD064623685A6812F0100F77D15A686B
:1017DC000192019A12F0290F4FD1B5F1FF3FF1D0D0
:1017EC0025B1FFF7CFFD801BA842EBD9E36B43F08B
:1017FC002003E363032084F83900002384F8383095
:10180C0066E0FFF7BFFD064623685A6812F0020F28
:10181C00CCD15A680192019A12F0210F13D1B5F173
:10182C00FF3FF1D025B1FFF7ADFD801BA842EBD9EE
:10183C00E36B43F02003E363032084F839000023B7
:10184C0084F8383044E0019A12F0200F03D0E26B98
:10185C0042F00202E263019A12F0010F03D0E26B34
:10186C0042F00102E26321229A60042384F83930A9
:10187C00002384F8383001202AE0019A12F0080F76
:10188C0003D0E26B42F00402E263019A12F0200FE3
:10189C0003D0E26B42F00202E263019A12F0010FF4
:1018AC0003D0E26B42F00102E26329229A60042326
:1018BC0084F83930002384F83830012008E023689C
:1018CC0012229A60012384F83930002084F8380001
:1018DC0002B070BD90F83830012B5BD030B40123CE
:1018EC0080F83830022380F8393000EB0113DB69C3
:1018FC00A3F10902012A21D98A1C120184188258E9
:10190C0043EA0243626843EA026359BB0468656AAE
:10191C00214A2A4013436362026800EB01139C695D
:10192C009461DB69093B012B13D9012380F8393011
:10193C00002380F83830184630BC70478A1C1201DE
:10194C008418825843EA0243626802F07F421343D0
:10195C00DBE7023100EB01114B68026823F07F4397
:10196C009362E2E70468E5690B4A2A401343E3619A
:10197C00026800EB01139C691461DB69093B012BC4
:10198C00D3D8023100EB01114B68026823F07F437E
:10199C001362CAE702207047F0FFFC0000230F2BF4
:1019AC0000F2E380F0B482B039E0092200E00022BA
:1019BC00B2403A4302346D4E46F824206C4A146807
:1019CC00EA4302EA04064F6817F4803F01D045EA67
:1019DC000406674C2660646802EA04064F6817F434
:1019EC00003F01D045EA0406614C6660A46802EA37
:1019FC0004064F6817F4801F01D045EA04065C4CBE
:101A0C00A660E46822404E6816F4001F01D045EA37
:101A1C000402574CE26001330F2B00F2A380012229
:101A2C009A400C6804EA0205AA42F4D14C68022CD4
:101A3C0001D0122C10D1DE08083650F826C003F065
:101A4C000704A7000F24BC402CEA040C0C69BC4012
:101A5C0044EA0C0440F8264004685F000326BE40AC
:101A6C00F64306EA040C4C6804F00304BC4044EA58
:101A7C000C0404604C6804F1FF3CBCF1010F03D969
:101A8C00112C01D0122C10D1846806EA040CCC68FD
:101A9C00BC4044EA0C048460446824EA02024C68AA
:101AAC00C4F300149C4014434460C26816408A6816
:101ABC00BA403243C2604A6812F0805FABD0002259
:101ACC0001922C4A546C44F480445464526C02F4D9
:101ADC0080420192019A9C08A61C244A52F8267056
:101AEC0003F0030296000F22B24027EA0207224AB3
:101AFC0090423FF45CAF02F58062904222D002F536
:101B0C008062904220D002F5806290421ED002F595
:101B1C00806290421CD002F5806290421AD002F58D
:101B2C008062904218D002F58062904216D002F585
:101B3C008062904214D002F5806290423FF435AF3F
:101B4C000A2235E7012233E7022231E703222FE78D
:101B5C0004222DE705222BE7062229E7072227E797
:101B6C00082225E702B0F0BC7047704700380140EE
:101B7C00003C0140003802400000024000230F2BC3
:101B8C0000F29280F0B50AE0092500E0002505FA84
:101B9C0002F2A2426FD001330F2B00F2848001229B
:101BAC009A4002EA0106B242F5D105685F000324AF
:101BBC00BC40E443254005604FEAD30C0CF1080C03
:101BCC0050F82CE003F00705AD000F2707FA05F5D8
:101BDC002EEA050540F82C5085682540856045683F
:101BEC0025EA02024260C2681440C4604FEA930CBA
:101BFC000CF102042D4A52F8244003F00302920027
:101C0C0097403C402A4DA842C0D005F58065A842BB
:101C1C0021D005F58065A8421FD005F58065A84246
:101C2C001DD005F58065A8421BD005F58065A8423E
:101C3C0019D005F58065A84217D005F58065A84236
:101C4C0015D005F58065A84213D005F58065A8422E
:101C5C009AD00A259BE7012599E7022597E70325EA
:101C6C0095E7042593E7052591E706258FE70725DA
:101C7C008DE708258BE70D4D0CF1020255F822403B
:101C8C0024EA070745F822700A4C2568F2431540F0
:101C9C002560656815406560A5681540A560E56818
:101CAC002A40E26077E7F0BD704700BF0038014082
:101CBC0000000240003C014012B9090481617047E8
:101CCC0081617047002800F0828010B5044690F8BE
:101CDC003D30002B41D0242384F83D30226813681A
:101CEC0023F00103136000F05BFD3A4BA3FB0023D0
:101CFC009B0C226853606168374A914232D8013399
:101D0C00226813626368344A934235D85B00B0FB97
:101D1C00F3F0C0F30B03032B00D804202368D86125
:101D2C00E369216A22680B4313602369E168226826
:101D3C000B4393606369A16922680B43D3602268EB
:101D4C00136843F00103136000202064202384F8FF
:101D5C003D30206384F83E0010BD80F83C3001F02B
:101D6C0071FDB8E74FF4967202FB03F31B4AA2FB1A
:101D7C0003239B090133C3E7A16889B903EB430231
:101D8C00B0FBF2F2C2F30B02B2FA82F25209E2B9E0
:101D9C0091B903EB4303B0FBF3F040F40040BDE713
:101DAC0003EB830202EB8202B0FBF2F2C2F30B02F2
:101DBC00B2FA82F25209EAE703EB830303EB8303E3
:101DCC00B0FBF3F040F44040A8E70120A6E7012067
:101DDC00704700BF83DE1B43A0860100D34D621009
:101DEC0090F83D30DBB2202B1AD1242380F83D3003
:101DFC000268136823F0010313600268536A23F02E
:101E0C00100353620268536A1943516202681368E3
:101E1C0043F001031360202380F83D30002070470D
:101E2C000220704790F83D30DBB2202B19D12423CF
:101E3C0080F83D300268136823F0010313600268D8
:101E4C00536A9BB223F00F03194389B251620268A3
:101E5C00136843F001031360202380F83D30002009
:101E6C00704702207047F0B44D680468E368C3F310
:101E7C000B431D44D2011444D4F8883003F470434E
:101E8C00C4F888300B680468E668C6F30B46334424
:101E9C000133144443EA0543C4F88830CD68046820
:101EAC00E368C3F30A031D441444D4F88C3003F4E0
:101EBC007043C4F88C308B680468E668C6F30A0675
:101ECC0033440133144443EA0543C4F88C300368AB
:101EDC001344D3F8944024F00704C3F894400368E7
:101EEC0013440C69C3F8944091F831C091F83270E6
:101EFC008E6905681544D5F89C300024C5F89C40C3
:101F0C0091F8303043EA0C2343EA07430568154443
:101F1C0043EA0663C5F89C3003681344D3F8985021
:101F2C0025F0FF05C3F89850036813444D69C3F8B6
:101F3C00985003681344D3F8A05025F4E06525F0BD
:101F4C000705C3F8A050CD690E6A036813443543E6
:101F5C00C3F8A05003681344D3F8AC50C3F8AC409A
:101F6C00036813444C6AC3F8AC400B696BB1012B8A
:101F7C003CD0042B3CD0022B08D0032B3AD0072B9F
:101F8C0001D0012302E0022300E00423046814447E
:101F9C00D4F8B05005F0E025C4F8B0508C6A03FBBF
:101FAC0004F54C680E68A41B03FB04F303330468AC
:101FBC00144443EA0543C4F8B03003681344D3F81F
:101FCC00B44024F4FF6424F00704C3F8B44003685D
:101FDC001344C96AC3F8B41003681A44D2F88430A5
:101FEC0043F00103C2F88430F0BC70470323CDE703
:101FFC000223CBE70223C9E7002872D038B5044688
:10200C0090F8A130002B67D0022384F8A13022680D
:10201C00936923F07043936121688A696368A068AF
:10202C000343E06803432069034313438B61216836
:10203C008A682D4B1A408A60656920688268A1699C
:10204C0041EA05410A4382602168CA681A40CA60A5
:10205C00E5692068C268216A41EA05410A43C26009
:10206C0021680A691A400A61656A20680269A16AD6
:10207C0041EA05410A43026121684A6913404B61F8
:10208C00E06A21684B69226B42EA004213434B61C0
:10209C0094F8350094F836301B042168CA6A02F0B3
:1020AC007F42CA622168CA6A43EA002394F834006A
:1020BC0003431343CB622268536B43F00603536311
:1020CC002268936943F0010393610020C4F8A400D3
:1020DC00012384F8A13038BD80F8A03001F00CFC4D
:1020EC0092E70120704700BF00F800F090F8A03094
:1020FC00012B27D02DE9F04194460F4606464FF0B0
:10210C00010880F8A080022380F8A130342404FB5D
:10211C00020438340D460FCD0FC40FCD0FC40FCDB4
:10212C000FC42B682360624639463046FFF79BFE8E
:10213C003368C3F8248086F8A180002086F8A000BC
:10214C00BDE8F0810220704790F8A030012B11D02F
:10215C00012280F8A020022380F8A13006498B6967
:10216C0043F480338B6180F8A120002380F8A030E9
:10217C0018467047022070470068014010B582B0C5
:10218C0000230193194B1A6C42F080521A641B6C99
:10219C0003F080530193019B154B01221A60FFF74A
:1021AC00F1F80446134B5B6813F4803F08D1FFF73A
:1021BC00E9F8001BB0F57A7FF4D9032002B010BD0A
:1021CC000D4B01221A60FFF7DDF80446094B5B68E2
:1021DC0013F4003F07D1FFF7D5F8001BB0F57A7F59
:1021EC00F4D90320EAE70020E8E700BF00380240FA
:1021FC0040000E420070004044000E42002800F0E7
:10220C00BB8170B582B00446036813F0010F3BD05C
:10221C00A74B9B6803F00C03042B2CD0A44B9B689E
:10222C0003F00C03082B21D06368B3F5803F4FD02B
:10223C00B3F5A02F52D09E4B1A6822F480321A604C
:10224C001A6822F480221A606368002B50D0FFF7C2
:10225C0099F80546964B1B6813F4003F14D1FFF711
:10226C0091F8401B6428F5D903208AE1904B5B68F8
:10227C0013F4800FD8D08E4B1B6813F4003F03D09F
:10228C006368002B00F07A81236813F0020F55D09D
:10229C00874B9B6813F00C0F3ED0854B9B6803F06B
:1022AC000C03082B33D0E368002B68D0814B012240
:1022BC001A60FFF767F805467D4B1B6813F0020F99
:1022CC0054D1FFF75FF8401B0228F5D9032058E1E1
:1022DC00774A136843F480331360B5E7744B1A687C
:1022EC0042F480221A601A6842F480321A60ABE71A
:1022FC00FFF748F805466E4B1B6813F4003FC3D03C
:10230C00FFF740F8401B6428F5D9032039E1684BEE
:10231C005B6813F4800FC6D1654B1B6813F0020F7A
:10232C0004D0E368012B01D001202AE1604A136834
:10233C0023F0F803216943EAC1031360236813F007
:10234C00080F40D0636963B35B4B01221A60FFF73F
:10235C0019F80546564B5B6F13F0020F33D1FFF79C
:10236C0011F8401B0228F5D903200AE1504A1368E2
:10237C0023F0F803216943EAC1031360DEE74D4BF8
:10238C0000221A60FEF7FEFF0546494B1B6813F04E
:10239C00020FD3D0FEF7F6FF401B0228F5D903201D
:1023AC00EFE0454B00221A60FEF7ECFF0546404B70
:1023BC005B6F13F0020F06D0FEF7E4FF401B022800
:1023CC00F5D90320DDE0236813F0040F79D0384BE6
:1023DC001B6C13F0805F33D100230193344B1A6CC8
:1023EC0042F080521A641B6C03F080530193019BE2
:1023FC000125324B1B6813F4807F23D0A368012B7B
:10240C0034D0052B38D02A4B1A6F22F001021A67F0
:10241C001A6F22F004021A67A368002B36D0FEF75D
:10242C00B1FF0646224B1B6F13F0020F48D1FEF78B
:10243C00A9FF801B41F288339842F3D90320A0E016
:10244C000025D6E71D4A136843F480731360FEF72A
:10245C0099FF0646194B1B6813F4807FCED1FEF70B
:10246C0091FF801B0228F5D903208AE0104A136FD4
:10247C0043F001031367CFE70D4B1A6F42F00402D0
:10248C001A671A6F42F001021A67C5E7FEF77AFF66
:10249C000646074B1B6F13F0020F11D0FEF772FFAD
:1024AC00801B41F288339842F3D9032069E000BFC6
:1024BC000038024000004742800E47420070004046
:1024CC00E5B9A369002B5BD0304A926802F00C028C
:1024DC00082A58D0022B17D02D4B00221A60FEF779
:1024EC0051FF0446294B1B6813F0007F42D0FEF7C6
:1024FC0049FF001B0228F5D9032042E0234A136C44
:10250C0023F080531364DCE7214B00221A60FEF7A2
:10251C0039FF05461D4B1B6813F0007F06D0FEF7F4
:10252C0031FF401B0228F5D903202AE0E369226A17
:10253C001343626A43EA8213A26A5208013A43EADD
:10254C000243E26A43EA0263104A5360104B0122D1
:10255C001A60FEF717FF04460C4B1B6813F0007F44
:10256C0006D1FEF70FFF001B0228F5D9032008E067
:10257C00002006E0002004E001207047012000E06C
:10258C00002002B070BD0120FBE700BF0038024004
:10259C0060004742264B9B6803F00C03042B44D08D
:1025AC00082B01D0234870472DE9F04B204B5A687B
:1025BC0002F03F025B6813F4800F13D01C4B596878
:1025CC00C1F3881100231C48A1FB0001FDF708FE94
:1025DC00174B5B68C3F3014301335B00B0FBF3F0B3
:1025EC00BDE8F08B124B5B68C3F388131E460027C3
:1025FC005C010025E41A65EB0705A90141EA946129
:10260C00A001001B61EB0501CB0043EA5073C40031
:10261C00A01943EB07018B0243EA90538402204636
:10262C0019460023FDF7DCFDD2E70348704700BFD5
:10263C00003802400024F40040787D01002800F0AE
:10264C009D8070B504464F4B1B6803F00F038B4203
:10265C0009D2CBB24B4A1370136803F00F038B42B1
:10266C0001D0012070BD236813F0020F17D013F0B6
:10267C00040F04D0444A936843F4E05393602368F6
:10268C0013F0080F04D0404A936843F460439360FE
:10269C003D4A936823F0F003A068034393600D4612
:1026AC00236813F0010F32D06368012B21D09A1EDE
:1026BC00012A25D9344A126812F0020F60D032492F
:1026CC008A6822F0030213438B60FEF75BFE06461A
:1026DC002D4B9B6803F00C036268B3EB820F16D092
:1026EC00FEF750FE801B41F288339842F0D903204C
:1026FC00B8E7254A126812F4003FE0D10120B1E797
:10270C00214A126812F0007FD9D10120AAE71D4B93
:10271C001B6803F00F03AB4209D9EAB2194B1A70CC
:10272C001B6803F00F03AB4201D001209AE723682A
:10273C0013F0040F06D0144A936823F4E053E168B5
:10274C000B439360236813F0080F07D00E4A93686D
:10275C0023F46043216943EAC1039360FFF71AFF36
:10276C00094B9B68C3F30313084AD35CD840084B4E
:10277C0018600020FEF7BCFD002073E701207047B5
:10278C0001206FE7003C024000380240407900080D
:10279C007C000020014B1868704700BF7C000020B3
:1027AC0008B5FFF7F7FF044B9B68C3F38223034A7A
:1027BC00D35CD84008BD00BF0038024050790008F7
:1027CC0030B583B00446036813F0030F14D12368AB
:1027DC0013F00C0F5AD1236813F0200F40F0AF8088
:1027EC00236813F0100F00F0118194F82C20884B03
:1027FC001A60002003B030BD864B00221A60FEF731
:10280C00C1FD0546844B1B6813F0006F06D0FEF724
:10281C00B9FD401B0228F5D90320EBE7236813F020
:10282C00010F07D06268A3681B0743EA82137A4A38
:10283C00C2F88430236813F0020F15D0764AD2F810
:10284C0084106068E3681B0643EA801301F0E041E2
:10285C000B43C2F88430D2F88C3023F01F03E169AB
:10286C0001390B43C2F88C306A4B01221A60FEF717
:10287C0089FD0546684B1B6813F0006FA7D1FEF766
:10288C0081FD401B0228F5D90320B3E7634B0022DE
:10289C001A60FEF777FD05465F4B1B6813F0005F6F
:1028AC0006D0FEF76FFD401B0228F5D90320A1E7E7
:1028BC00236813F0040F16D0574AD2F888102069F9
:1028CC0063691B0643EA801301F0E0410B43C2F835
:1028DC008830D2F88C3023F4F853216A013943EA5A
:1028EC000123C2F88C30236813F0080F14D04A4A25
:1028FC00D2F88830216903F0706343EA8113A1692F
:10290C0043EA0173C2F88830D2F88C3023F4403398
:10291C00616A0B43C2F88C30404B01221A60FEF7FF
:10292C0031FD05463C4B1B6813F0005F7FF453AF41
:10293C00FEF728FD401B0228F4D903205AE7002398
:10294C000193354B1A6C42F080521A641B6C03F0E5
:10295C0080530193019B324A136843F480731360D4
:10296C00FEF710FD05462E4B1B6813F4807F06D135
:10297C00FEF708FD401B0228F5D903203AE7264B49
:10298C001B6F13F4407312D0A26A02F440729A4285
:10299C000DD0214B1A6F22F440722249012008609D
:1029AC00002008601A671B6F13F0010F12D1A36A85
:1029BC0003F44072B2F5407F1DD0174A936823F49C
:1029CC00F813936014490B6FA26AC2F30B02134302
:1029DC000B6705E7FEF7D6FC05460F4B1B6F13F094
:1029EC00020FE4D1FEF7CEFC401B41F28833984233
:1029FC00F3D90320FEE608498A6822F4F81223F082
:102A0C00704323F4407313438B60DBE70020F1E643
:102A1C00E0114742680047420038024070004742CC
:102A2C0000700040400E4742D8B138B504460D4600
:102A3C0090F82C3083B1022384F82C30211D2068AF
:102A4C0000F09DFB62682946206800F0D4FB01234E
:102A5C0084F82C30002038BD80F82D3001F060F85F
:102A6C00E9E70120704738B590F82C30DBB2022B27
:102A7C0014D00D460446022380F82C30006800F078
:102A8C0005FC2B68022B04D0012384F82C30002089
:102A9C0038BD052384F82C300020F9E70220F7E735
:102AAC0090F82C30DBB2022B0CD010B5044602236C
:102ABC0080F82C30006800F013FC012384F82C30D3
:102ACC00002010BD02207047F8B505460F4616468B
:102ADC001C463BE02CB1FEF755FC069BC01AA042ED
:102AEC0034D32A68536823F0E00353606B68B3F562
:102AFC00827F0BD0AB6AB3F5005F14D0012385F84D
:102B0C005130002385F85030032027E0AB68B3F533
:102B1C00004F02D0B3F5806FECD12A68136823F014
:102B2C0040031360E6E72A68136823F400531B0480
:102B3C001B0C13602A68136843F400531360DDE721
:102B4C000123B34209D0B4F1FF3FC3D12B689B687A
:102B5C0037EA0303F4D00023F3E70020F8BD10B5E7
:102B6C0082B0044600920B4600228021FFF7ACFF96
:102B7C00034610B9184602B010BD636D43F0200334
:102B8C0063650323F6E700283BD010B50446002309
:102B9C00836290F85130002B2ED0022384F85130F0
:102BAC002268136823F0400313606368A268134320
:102BBC00E26813432269134362691343A26902F466
:102BCC0000721343E2691343226A1343A16A226819
:102BDC000B431360638B03F00403616A22680B439D
:102BEC0053602268D36923F40063D36100206065CD
:102BFC00012384F8513010BD80F8503000F040FFB4
:102C0C00CBE70120704790B110B50446022380F841
:102C1C0051300268136823F04003136000F068FF22
:102C2C000020606584F8510084F8500010BD01202C
:102C3C0070472DE9F04184B01E4690F85030012BBE
:102C4C0000F0C88004460D469046012380F85030B1
:102C5C00FEF798FB074694F85130DBB2012B0AD0F3
:102C6C000223012284F85120002284F850201846B7
:102C7C0004B0BDE8F081002D00F0A480B8F1000F85
:102C8C0000F0A280032384F8513000236365256390
:102C9C00A4F83480A4F83680A363A387E387636425
:102CAC002364A368B3F5004F1BD023681A6812F095
:102CBC00400F03D11A6842F040021A60E368B3F582
:102CCC00006F14D063681BB1E38E9BB2012B3ED115
:102CDC00236815F8012B1A73E38E013B9BB2E38634
:102CEC0035E02268136843F480431360DDE76368C2
:102CFC001BB1E38E9BB2012B0DD1236835F8022B4F
:102D0C00DA60E38E013B9BB2E38604E0002E5DD0DB
:102D1C00B6F1FF3F0FD1E38E9BB27BB323689A6869
:102D2C0012F0020FF2D035F8022BDA60E38E013B81
:102D3C009BB2E386EFE7FEF725FBC01BB042EAD35C
:102D4C0003238EE7002E43D0B6F1FF3F0FD1E38E65
:102D5C009BB29BB123689A6812F0020FF2D015F85F
:102D6C00012B1A73E38E013B9BB2E386EFE7FEF770
:102D7C0009FBC01BB042EAD3032372E7009733462A
:102D8C00012202212046FFF79FFE08B1032368E7CA
:102D9C003A4631462046FFF7E2FE034618B120239F
:102DAC00636501235DE7A26832B903922268D1689A
:102DBC00039192680392039A626D002A3FF451AF1B
:102DCC0001234EE701234CE701234AE7032348E79D
:102DDC00032346E702234AE72DE9F04385B09946E1
:102DEC000C9D90F85030012B00F0108104460F46DA
:102DFC001646012380F85030FEF7C4FA804694F84A
:102E0C005130DBB26268012B15D0B2F5827F0AD04B
:102E1C000223012284F85120002284F85020184605
:102E2C0005B0BDE8F083A268002A40F0E780042BCF
:102E3C0001D00223EDE7002F00F0E280002E00F01D
:102E4C00E180B9F1000F00F0DF8094F85130DBB273
:102E5C00012B2BD000236365A663A4F83E90A4F845
:102E6C003C902763A4F83690A4F8349023646364F0
:102E7C0023681A6812F0400F03D11A6842F040021E
:102E8C001A60E368B3F5006F14D063681BB1E38E6E
:102E9C009BB2012B07D1236817F8012B1A73E38E11
:102EAC00013B9BB2E3864FF0010961E0052384F8F6
:102EBC005130CFE763681BB1E38E9BB2012B07D176
:102ECC00236837F8022BDA60E38E013B9BB2E38672
:102EDC004FF0010913E0E38F9BB26BB123689A6842
:102EEC0012F0010F08D0DB6826F8023BE38F013BA0
:102EFC009BB2E3874FF00109B5F1FF3F1CD1E38E84
:102F0C009BB21BB9E38F9BB2002B55D0B9F1000FCC
:102F1C00E1D0E38E9BB2002BDDD023689A6812F0CF
:102F2C00020FD8D037F8022BDA60E38E013B9BB24C
:102F3C00E3864FF00009CEE7FEF724FAA0EB080079
:102F4C00A842DCD3032364E7E38F9BB26BB1236805
:102F5C009A6812F0010F08D0DB683370E38F013BE5
:102F6C009BB2E38701364FF00109B5F1FF3F1BD14E
:102F7C00E38E9BB213B9E38F9BB2EBB1B9F1000FA7
:102F8C00E2D0E38E9BB2002BDED023689A6812F05D
:102F9C00020FD9D03A781A73E38E013B9BB2E386C9
:102FAC0001374FF00009CFE7FEF7ECF9A0EB080072
:102FBC00A842DDD303232CE7CDF800802B46012259
:102FCC0002212046FFF780FD08B1032321E742468A
:102FDC0029462046FFF7C3FD034618B1202363653D
:102FEC00012316E7A268002A7FF413AF039222682C
:102FFC00D168039192680392039A0AE7022308E7C7
:10300C00012306E7012304E7012302E7022306E775
:10301C002DE9F04182B004460D4617461E46436822
:10302C00B3F5827F19D094F85030012B00F0A280B8
:10303C00012384F85030FEF7A5F9804694F85130FE
:10304C00DBB2012B15D00220012384F85130002370
:10305C0084F8503002B0BDE8F0818368002BE2D1D7
:10306C00042380F85130009613460A46FFF7B4FE4D
:10307C00F0E7002D74D0002F74D0042384F8513065
:10308C0000236365A563A787E7872363A386E3868D
:10309C0023646364A368B3F5004F0BD023681A68EC
:1030AC0012F0400F03D11A6842F040021A60E36834
:1030BC005BB128E02268136823F480431360EDE7CA
:1030CC00002E51D0B6F1FF3F10D1E38F9BB2002BF5
:1030DC0031D023689A6812F0010FF1D01B7B05F8F0
:1030EC00013BE38F013B9BB2E387EEE7FEF74AF926
:1030FC00A0EB0800B042E8D30320A5E7002E35D0A2
:10310C00B6F1FF3F0FD1E38F9BB2A3B123689A684E
:10311C0012F0010FF2D0DB6825F8023BE38F013B84
:10312C009BB2E387EFE7FEF72DF9A0EB0800B04266
:10313C00E9D3032088E76368B3F5827F03D0636D1E
:10314C00B3B9002080E7A368B3F5004F02D0B3F504
:10315C00806FF4D12268136823F040031360EEE70C
:10316C00012071E701206FE703206DE703206BE777
:10317C00012069E702206DE790F85100704730B4E8
:10318C000B68012B1AD0026822F4FF4222F07F0256
:10319C004B688C682343CC6823430C6923434C69EC
:1031AC0023438C692343CC6923430C6A2343496A28
:1031BC000B4313430360002030BC7047026822F4B9
:1031CC00F842CB690C6A1C434B6A1C43144342689B
:1031DC0022F4FF4222F07F024B688D682B43CD68AE
:1031EC002B430D692B434D692B4389690B431343C7
:1031FC0004604360DFE730B4012A21D0826802F01A
:10320C0070420B68013B4C68013C43EA04138C6828
:10321C00013C43EA0423CC68013C43EA04330C69C7
:10322C00013C43EA04434C69013C43EA0453896979
:10323C00013943EA016313438360002030BC7047BB
:10324C00846824F4700424F47044CA68551E4B69D5
:10325C005A1E120542EA05322243C46804F0704437
:10326C000B68013B4D68013D43EA05138D68013D38
:10327C0043EA05230D69013D43EA05438969013998
:10328C0043EA016323438260C360D6E770B582B022
:10329C0004461546002301930B684A6813438A6859
:1032AC00013A43EA4213CA6843EA42230193019B61
:1032BC000361FEF767F80646A36913F0200F0AD0E6
:1032CC00B5F1FF3FF8D04DB1FEF75CF8801BA8427A
:1032DC00F2D9032000E0002002B070BD0320FBE710
:1032EC00436943EA410141610020704788B00022E4
:1032FC000192244B196B41F020011963196B01F0F9
:10330C002001019101990292196B41F0040119639A
:10331C00196B01F00401029102990392196B41F0AF
:10332C0001011963196B01F00101039103990492D6
:10333C00196B41F002011963196B01F00201049140
:10334C0004990592196B41F040011963196B01F056
:10335C004001059105990692196B41F01001196312
:10336C00196B01F010010691069907921A6B42F045
:10337C0008021A631B6B03F008030793079B08B042
:10338C00704700BF0038024010B50A4C0A4B23604E
:10339C00002363600222A260E360A362E262236303
:1033AC0063632046FEF7AEF901212046FEF792FA40
:1033BC0010BD00BF5004002000B0024000B589B021
:1033CC000F48104B036001234360002282600823E6
:1033DC00C360102303614021416180218161C2617E
:1033EC0002624262826201930293039304930593F7
:1033FC000693079301A9FFF717FB09B05DF804FBCF
:10340C0090040020400100A038B50D4C0D4B2360FA
:10341C000D4B63600025A560E5604FF4804323618C
:10342C006561A561E56125622046FEF74BFC2946E6
:10343C002046FEF7D5FC29462046FEF7F3FC38BDA6
:10344C00FC020020005C0040A0860100F0B59BB09F
:10345C003424224600210DEB040000F0E5FB22464B
:10346C000021684600F0E0FB2B4D2C4B2B60002418
:10347C006C60AC60EC602C6107236B610323AB6167
:10348C000E23EB6105262E624FF4A7736B6240F29C
:10349C00E513AB624FF4AA73EB6240F2E7132B63B4
:1034AC0085F8344085F8354085F836402846FEF7D7
:1034BC00A3FD0D940E940F941094119412941394E4
:1034CC004FF48067149715961694179418948DF8EA
:1034DC0064408DF865408DF8664022460DA928465B
:1034EC00FEF704FE00940194029403940494059452
:1034FC0006940797089609940A940B948DF830401B
:10350C008DF831408DF83240012269462846FEF78D
:10351C00EDFD1BB0F0BD00BFA8030020006801400A
:10352C0008B50B480B4B03604FF4827343600023C8
:10353C008360C360036143614FF400728261C361B5
:10354C000362436283620A23C362FFF71CFB08BD5C
:10355C005003002000500140F0B5A1B030252A46A0
:10356C00002114A800F060FB00240F941094119417
:10357C00129413942A46214603A800F055FB01949B
:10358C00204B1A6C42F080521A641B6C03F080536F
:10359C000193019B02941C4B1A6842F440421A603E
:1035AC001B6803F440430293029B022514950123EC
:1035BC001793102318931A951B9408271C97B42360
:1035CC001D931E9504261F9614A8FEF717FEFEF7F2
:1035DC00D5FD0F230F93109511944FF4A053129314
:1035EC004FF48053139305210FA8FFF727F8039787
:1035FC003223079309960C9403A8FFF7E1F821B046
:10360C00F0BD00BF003802400070004008B5FDF767
:10361C0093FEFFF7A1FFFFF769FEFFF7B5FEFFF77B
:10362C00CDFEFFF7F1FEFFF711FFFFF779FFFDF776
:10363C005DFB4FF050410020FDF7F4FA4FF0504184
:10364C000120FDF7EFFA0020FDF732FBFDF7C8FB78
:10365C004FF0FF30FDF7A6FB4FF07F40FDF72EFB40
:10366C001F4C21460120FDF7D3FC1E48FDF726FB1D
:10367C0021460220FDF7CCFC1B48FDF71FFB214621
:10368C000320FDF7C5FC1948FDF718FB2146042063
:10369C00FDF7BEFC1648FDF711FB21460520FDF792
:1036AC00B7FC4FF0FF20FDF709FB21460620FDF784
:1036BC00AFFC1048FDF702FB21460720FDF7A8FCE4
:1036CC000D48FDF7FBFA21460820FDF7A1FC0B483D
:1036DC00FDF75EFE4FF0FF30FDF764FBBCE700BF6B
:1036EC0058790008FF0000FF808000FF008000FF79
:1036FC000000FFFF2A2AA5FF808080FFA086010022
:10370C002E4B1B6803B170472DE9F04186B04FF08A
:10371C0001082A4BC3F8008000240094284B9A6BB4
:10372C0042EA08029A639B6B03EA08030093009B2E
:10373C004FF63F0301930227029703940326049646
:10374C000C25059501A91F48FEF728F9CDF8048032
:10375C00029703940496059501A91B48FEF71EF9E0
:10376C0048F237130193029703940496059501A927
:10377C001648FEF713F94FF68373019302970394DF
:10378C000496059501A91248FEF708F94CF203734B
:10379C000193029703940496059501A90D48FEF731
:1037AC00FDF860230193029703940496059501A9F3
:1037BC000948FEF7F3F806B0BDE8F081EC020020F2
:1037CC000038024000140240000802400018024079
:1037DC0000100240000C02400004024082B00021A4
:1037EC0000910B4B5A6C42F480425A645A6C02F4AE
:1037FC0080420092009A01911A6C42F080521A6435
:10380C001B6C03F080530193019B02B0704700BF07
:10381C00003802400268094B9A4200D0704782B0CF
:10382C0000230193064B1A6B42F400021A631B6BC4
:10383C0003F400030193019B02B0704700B00240F7
:10384C00003802402DE9F04389B000230393049320
:10385C000593069307930268234B9A4202D009B052
:10386C00BDE8F08300250095204C236B43F0040346
:10387C002363236B03F004030093009B0195236BDC
:10388C0043F001032363236B03F001030193019BBA
:10389C004FF4007303934FF01209CDF810904FF0D2
:1038AC000108CDF81480032706970426079603A970
:1038BC000F48FEF773F84FF480730393CDF8109014
:1038CC00CDF814800697079603A90A48FEF766F808
:1038DC000295236C43F400032364236C03F400036C
:1038EC000293029BBBE700BF005C00400038024023
:1038FC0000080240000002402DE9F0418CB000238A
:10390C000793089309930A930B930268564B9A42B8
:10391C0002D00CB0BDE8F0810024009403F55043B4
:10392C005A6C42F080625A645A6C02F080620092C7
:10393C00009A01941A6B42F020021A631A6B02F07F
:10394C0020020192019A02941A6B42F001021A634E
:10395C001A6B02F001020292029A03941A6B42F063
:10396C0002021A631A6B02F002020392039A049485
:10397C001A6B42F040021A631A6B02F04002049276
:10398C00049A05941A6B42F004021A631A6B02F043
:10399C0004020592059A06941A6B42F008021A6307
:1039AC001B6B03F008030693069B4FF4806307938D
:1039BC00022508950E260B9607A92C48FDF7EEFF5D
:1039CC0041F658030793089509940A940B9607A996
:1039DC002748FDF7E3FF03230793089509940A94FE
:1039EC004FF00908CDF82C80224F07A93846FDF777
:1039FC00D5FF4FF470630793089509940A940B96BE
:103A0C0007A93846FDF7CAFF4FF40C6307930895D6
:103A1C0009940A940B9607F5A05707A93846FDF7A9
:103A2C00BDFF4FF498630793089509940A940B967D
:103A3C0007A91148FDF7B2FF48230793089509948D
:103A4C000A940B9607A90D48FDF7A8FF4FF4A05355
:103A5C000793089509940A94CDF82C8007A9384649
:103A6C00FDF79CFF55E700BF0068014000140240C1
:103A7C00000002400004024000080240000C02401A
:103A8C0000B589B000230393049305930693079321
:103A9C000268154B9A4202D009B05DF804FB002174
:103AAC00019103F568435A6C42F480125A645A6CC3
:103ABC0002F480120192019A02911A6B42F02002D8
:103ACC001A631B6B03F020030293029B4FF4607389
:103ADC00039302230493032306930523079303A95B
:103AEC000248FDF75BFFD7E700500140001402408D
:103AFC0008B50268074B9A4200D008BD064A536CC1
:103B0C0023F4801353644FF460710448FEF736F8C5
:103B1C00F3E700BF0050014000380240001402409F
:103B2C0008B5FFF7EDFD08BD7047FEE7FEE7FEE7C1
:103B3C00FEE770477047704708B5FDF717FC08BDE6
:103B4C000F49D1F8883043F47003C1F888300D4B1D
:103B5C001A6842F001021A60002098601A6822F07C
:103B6C00847222F480321A60074A5A601A6822F46E
:103B7C0080221A60D8604FF000638B60704700BFE2
:103B8C0000ED00E00038024010300024DFF834D0A3
:103B9C00002103E00C4B5B58435004310B480C4B99
:103BAC0042189A42F6D30B4A02E0002342F8043B37
:103BBC00094B9A42F9D3FFF7C3FF00F011F8FFF756
:103BCC0025FD7047000003207479000800000020D8
:103BDC008000002080000020C4040020FEE70000CC
:103BEC0070B50D4E0D4CA41BA4100025A54209D197
:103BFC000B4E0C4C00F020F8A41BA4100025A54281
:103C0C0005D170BD56F8253098470135EEE756F8CA
:103C1C00253098470135F2E76C7900086C7900087B
:103C2C006C7900087079000802440346934200D175
:103C3C00704703F8011BF9E7F8B500BFF8BC08BCE6
:103C4C009E467047F8B500BFF8BC08BC9E4670474E
:103C5C0000000000000000002020202000200000B8
:103C6C0050500000000000002850F850F850A00000
:103C7C0020306030106020002020186010100000F0
:103C8C000038206050780000202020000000000048
:103C9C001020202020201000402020202020400038
:103CAC002070205000000000002020F82020000090
:103CBC000000000010202000000000700000000038
:103CCC000000000000200000102020204040800058
:103CDC0020505050502000006020202020F8000080
:103CEC002050202040700000205010201060000058
:103CFC0010305078103800007040601050200000D8
:103D0C0030406050506000007050102020200000A7
:103D1C0020502050502000003050503010600000D7
:103D2C000000200000200000000010001020000007
:103D3C00001020C020100000007000700000000077
:103D4C0000402018204000002050102000200000CF
:103D5C0030484858484038006020507088D80000DF
:103D6C00F048704848F0000070504040403000006F
:103D7C00F048484848F00000F848604048F8000017
:103D8C00F848604040E0000070404058503000005F
:103D9C00E848784848E80000702020202070000097
:103DAC003810105050200000D850607050D80000CF
:103DBC00E040404048F80000D8D8D8A888D8000087
:103DCC00D868685858E80000304848484830000027
:103DDC00F048487040E0000030484848483018002F
:103DEC00F048487048E800007050201050700000F7
:103DFC00F8A8202020700000D8484848483000001F
:103E0C00D888485050300000D888A8A8A850000086
:103E1C00D850202050D80000D888502020700000A6
:103E2C0078481020487800003020202020203000D6
:103E3C0080404020202010006020202020206000A6
:103E4C00202050000000000000000000000000F8DE
:103E5C0020100000000000000000301070780000FE
:103E6C00C040704848F000000000704040700000F6
:103E7C0018083848483800000000707040300000C6
:103E8C00102070202070000000003848483808309E
:103E9C00C040704848E800002000602020700000FE
:103EAC002000701010101070C040587050D80000D6
:103EBC0060202020207000000000D0A8A8A80000DE
:103ECC000000F04848C800000000304848300000AE
:103EDC000000F048487040E00000384848380818A6
:103EEC0000007820207000000000302010600000DE
:103EFC000040F040483000000000D848483800002E
:103F0C000000C848303000000000D8A8A8500000BD
:103F1C0000004830304800000000D850502020608D
:103F2C00000078502878000010202060202010001D
:103F3C002020202020202000402020302020400065
:103F4C0000000028500000000000000000000000ED
:103F5C0000000000001010101010000010000000F5
:103F6C00006C4848000000000000000000141428F9
:103F7C007C287C2850500000001038404038487095
:103F8C0010100000002050200C70081408000000D5
:103F9C0000000018202054483400000000101010BD
:103FAC001000000000000000000808101010101095
:103FBC0010080800002020101010101010202000F5
:103FCC0000107C10282800000000000000001010D9
:103FDC0010FE10101000000000000000000000187F
:103FEC001030200000000000007C000000000000E9
:103FFC000000000000000030300000000004040845
:10400C00081010202040000000384444444444442C
:10401C003800000000301010101010107C00000050
:10402C0000384404081020447C000000003844048C
:10403C001804044438000000000C141424447E04BA
:10404C000E000000003C202038040444380000001E
:10405C00001C20407844444438000000007C440498
:10406C000808081010000000003844443844444448
:10407C003800000000384444443C04087000000040
:10408C00000000303000003030000000000000184C
:10409C00180000183020000000000C106080601028
:1040AC000C000000000000007C007C000000000000
:1040BC000000C02018041820C000000000001824C4
:1040CC0004081000300000003844444C54544C4058
:1040DC00443800000030102828287C44EE000000F2
:1040EC0000F8444478444444F8000000003C444048
:1040FC00404040443800000000F0484444444448E8
:10410C00F000000000FC445070504044FC000000E3
:10411C00007E22283828202070000000003C4440FB
:10412C00404E44443800000000EE44447C44444477
:10413C00EE000000007C1010101010107C0000002D
:10414C00003C0808084848483000000000EE44488D
:10415C0050704844E60000000070202020202424E9
:10416C007C00000000EE6C6C54544444EE000000E3
:10417C0000EE64645454544CEC0000000038444489
:10418C00444444443800000000782424243820207F
:10419C00700000000038444444444444381C00007F
:1041AC0000F8444444784844E200000000344C4099
:1041BC00380404645800000000FE92101010101017
:1041CC003800000000EE44444444444438000000ED
:1041DC0000EE4444282828101000000000EE44444F
:1041EC00545454542800000000C64428101028448D
:1041FC00C600000000EE4428281010103800000003
:10420C00007C4408101020447C0000000038202062
:10421C0020202020202038000040202020101008D2
:10422C0008080000003808080808080808083800C2
:10423C0000101028440000000000000000000000E6
:10424C0000000000000000FE00100800000000004C
:10425C000000000000000038443C44443E000000D4
:10426C0000C0405864444444F80000000000003C86
:10427C004440404438000000000C04344C44444496
:10428C003E00000000000038447C40403C00000030
:10429C00001C207C202020207C0000000000003628
:1042AC004C4444443C04380000C0405864444444EA
:1042BC00EE00000000100070101010107C000000C8
:1042CC0000100078080808080808700000C0405C5E
:1042DC0048705048DC000000003010101010101016
:1042EC007C000000000000E854545454FE00000010
:1042FC00000000D864444444EE0000000000003884
:10430C004444444438000000000000D86444444451
:10431C007840E000000000364C4444443C040E005D
:10432C000000006C302020207C0000000000003CCD
:10433C0044380444780000000000207C2020202217
:10434C001C000000000000CC4444444C360000002B
:10435C00000000EE4444282810000000000000EE8D
:10436C004454545428000000000000CC483030481D
:10437C00CC000000000000EE442428181010780037
:10438C000000007C481020447C0000000008101045
:10439C001010201010100800001010101010101029
:1043AC001010000000201010101008101010200029
:1043BC000000000000245800000000000000000075
:1043CC0000000000000000000000000000000000E1
:1043DC0000000000000000000000000000000C00C5
:1043EC000C000C000C000C000C000C000C0000006D
:1043FC000C000000000000000000000000000000A5
:10440C001DC01DC00880088008800000000000004E
:10441C0000000000000000000000000000000D8003
:10442C000D800D800D803FC01B003FC01B001B008A
:10443C001B001B00000000000000000004001F8097
:10444C003180318038001E000F00038031803180B4
:10445C003F000400040000000000000000001800F1
:10446C002400240018C007801E0031800240024046
:10447C0001800000000000000000000000000000AF
:10448C000F001800180018000C001D8037003300B6
:10449C001D80000000000000000000000000000073
:1044AC0007000700020002000200000000000000EC
:1044BC0000000000000000000000000000000300ED
:1044CC00030006000E000C000C000C000C000E008B
:1044DC0006000300030000000000000000001800AC
:1044EC0018000C0006000600060006000600060078
:1044FC000C001C001800000000000000000006006A
:10450C0006003FC03FC00F001F8019800000000054
:10451C00000000000000000000000000000000008F
:10452C0000000400040004003F80040004000400A8
:10453C00000000000000000000000000000000006F
:10454C000000000000000000000000000000060059
:10455C0004000C000800080000000000000000002F
:10456C0000000000000000003F8000000000000080
:10457C00000000000000000000000000000000002F
:10458C0000000000000000000000000000000C0013
:10459C000C000000000000000000000000C000C083
:1045AC00018001800300030006000C000C001800C1
:1045BC0018003000300000000000000000000E0069
:1045CC001B003180318031803180318031801B0083
:1045DC000E000000000000000000000000000600BB
:1045EC003E00060006000600060006000600060057
:1045FC003FC00000000000000000000000000F00A1
:10460C00198031803180030006000C001800300046
:10461C003F800000000000000000000000003F0090
:10462C006180018003001F00038001800180618094
:10463C003F00000000000000000000000000070028
:10464C0007000F000B001B00130033003F8003001A
:10465C000F800000000000000000000000001F8020
:10466C001800180018001F001180018001802180A3
:10467C001F00000000000000000000000000078088
:10468C001C001800300037003980318031801980CF
:10469C000F000000000000000000000000007F0080
:1046AC004300030006000600060006000C000C0088
:1046BC000C000000000000000000000000001F00C3
:1046CC003180318031801F003180318031803180E8
:1046DC001F000000000000000000000000001E0091
:1046EC0033003180318033801D800180030007004E
:1046FC003C00000000000000000000000000000072
:10470C00000000000C000C000000000000000C0079
:10471C000C00000000000000000000000000000081
:10472C000000000003000300000000000000060071
:10473C000400080008000000000000000000000059
:10474C0000C00300040018006000180004000300FF
:10475C0000C000000000000000000000000000008D
:10476C000000000000007FC000007FC000000000BF
:10477C00000000000000000000000000000000002D
:10478C00600018000400030000C0030004001800BF
:10479C0060000000000000000000000000000000AD
:1047AC001F0031803180018007000C000C000000DC
:1047BC000C000000000000000000000000000E00D3
:1047CC0011002100210027002900290027002000CA
:1047DC0011000E00000000000000000000000000AE
:1047EC003F000F000900198019801F8030C030C0B5
:1047FC0079E0000000000000000000000000000054
:10480C007F003180318031803F00318031803180B8
:10481C007F0000000000000000000000000000000D
:10482C001F4030C06040600060006000604030801D
:10483C001F0000000000000000000000000000004D
:10484C007F00318030C030C030C030C030C03180CB
:10485C007F000000000000000000000000000000CD
:10486C007F803080308032003E00320030803080DB
:10487C007F8000000000000000000000000000002D
:10488C007FC03040304032003E00320030003000FB
:10489C007C00000000000000000000000000000090
:1048AC001E80318060806000600067C06180318054
:1048BC001F000000000000000000000000000000CD
:1048CC007BC03180318031803F80318031803180BC
:1048DC007BC0000000000000000000000000000091
:1048EC003FC0060006000600060006000600060093
:1048FC003FC00000000000000000000000000000AD
:10490C001FC0030003000300030063006300630087
:10491C003E0000000000000000000000000000004D
:10492C007BC03180330036003C003E0033003180C8
:10493C0079C0000000000000000000000000000032
:10494C007E00180018001800180018401840184075
:10495C007FC000000000000000000000000000000C
:10496C00E0E060C071C07BC06AC06EC064C060C053
:10497C00FBE0000000000000000000000000000050
:10498C0073C0318039803D803580378033803180F1
:10499C007980000000000000000000000000000012
:1049AC001F00318060C060C060C060C060C03180DA
:1049BC001F000000000000000000000000000000CC
:1049CC007F0031803180318031803F0030003000F9
:1049DC007E0000000000000000000000000000004D
:1049EC001F00318060C060C060C060C060C031809A
:1049FC001F000CC01F800000000000000000000021
:104A0C007F003180318031803E0033003180318035
:104A1C007CE000000000000000000000000000002E
:104A2C001F803180318038001F000380318031803D
:104A3C003F0000000000000000000000000000002B
:104A4C007F804C804C804C800C000C000C000C00C7
:104A5C003F0000000000000000000000000000000B
:104A6C007BC0318031803180318031803180318028
:104A7C001F0000000000000000000000000000000B
:104A8C007BC0318031801B001B001B000A000E0014
:104A9C000E000000000000000000000000000000FC
:104AAC00FBE060C064C06EC06EC02A803B803B805F
:104ABC003180000000000000000000000000000039
:104ACC007BC031801B000E000E000E001B003180DD
:104ADC007BC000000000000000000000000000008F
:104AEC0079E030C019800F000600060006000600B1
:104AFC001F8000000000000000000000000000000B
:104B0C003F8021802300060004000C0018803080B8
:104B1C003F80000000000000000000000000078043
:104B2C000600060006000600060006000600060049
:104B3C000600060007800000000000003000300076
:104B4C00180018000C000C00060003000300018084
:104B5C00018000C000C000000000000000001E002A
:104B6C000600060006000600060006000600060009
:104B7C00060006001E0000000000000004000A00F1
:104B8C000A001100208020800000000000000000BE
:104B9C000000000000000000000000000000000009
:104BAC0000000000000000000000000000000000F9
:104BBC0000000000000000000000FFE008000400FE
:104BCC0002000000000000000000000000000000D7
:104BDC0000000000000000000000000000000000C9
:104BEC00000000001F00018001801F803180338095
:104BFC001DC000000000000000000000000070005C
:104C0C00300030003700398030C030C030C03980BF
:104C1C007700000000000000000000000000000011
:104C2C00000000001E803180608060006080318058
:104C3C001F000000000000000000000000000380C6
:104C4C00018001801D8033806180618061803380B0
:104C5C001DC000000000000000000000000000006B
:104C6C00000000001F00318060C07FC0600030C0B9
:104C7C001F8000000000000000000000000007E0A2
:104C8C000C000C003F800C000C000C000C000C0005
:104C9C003F80000000000000000000000000000049
:104CAC00000000001DC03380618061806180338012
:104CBC001D80018001801F000000000000007000BA
:104CCC0030003000370039803180318031803180C4
:104CDC007BC0000000000000000000000000060087
:104CEC00060000001E000600060006000600060076
:104CFC003FC00000000000000000000000000600A3
:104D0C00060000003F000300030003000300030043
:104D1C000300030003003E000000000000007000D0
:104D2C0030003000378036003C003C003600330049
:104D3C0077C00000000000000000000000001E0012
:104D4C000600060006000600060006000600060027
:104D5C003FC0000000000000000000000000000048
:104D6C00000000007F8036C036C036C036C036C06A
:104D7C0076E00000000000000000000000000000D1
:104D8C000000000077003980318031803180318023
:104D9C007BC00000000000000000000000000000CC
:104DAC00000000001F00318060C060C060C0318016
:104DBC001F000000000000000000000000000000C8
:104DCC00000000007700398030C030C030C039801E
:104DDC003700300030007C000000000000000000B4
:104DEC00000000001DC033806180618061803380D1
:104DFC001D800180018007C0000000000000000041
:104E0C00000000007B801CC018001800180018005F
:104E1C007F00000000000000000000000000000007
:104E2C00000000001F8031803C001F000380318097
:104E3C003F0000000000000000000000000018000F
:104E4C00180018007F0018001800180018001880AF
:104E5C000F00000000000000000000000000000037
:104E6C0000000000738031803180318031803380CC
:104E7C001DC0000000000000000000000000000049
:104E8C00000000007BC0318031801B001B000E0035
:104E9C000E000000000000000000000000000000F8
:104EAC0000000000F1E060C064C06EC03B803B803D
:104EBC003180000000000000000000000000000035
:104ECC00000000007BC01B000E000E000E001B003B
:104EDC007BC000000000000000000000000000008B
:104EEC000000000079E030C0198019800B000F0021
:104EFC00060006000C003E00000000000000000050
:104F0C00000000003F80218003000E00180030805C
:104F1C003F800000000000000000000000000600C0
:104F2C000C000C000C000C000C0018000C000C0009
:104F3C000C000C0006000000000000000000060041
:104F4C000600060006000600060006000600060025
:104F5C0006000600060000000000000000000C0027
:104F6C000600060006000600060003000600060008
:104F7C00060006000C00000000000000000000000D
:104F8C000000000000001800248003000000000056
:104F9C000000000000000000000000000000000005
:104FAC0000000000000000000000000000000000F5
:104FBC0000000000000000000000000000000000E5
:104FCC0000000000000007000700070007000700B2
:104FDC0007000700020002000000000007000700A5
:104FEC0000000000000000000000000000000000B5
:104FFC001CE01CE01CE008400840084000000000D9
:10500C000000000000000000000000000000000094
:10501C00000000000CC00CC00CC00CC00CC03FF059
:10502C003FF00CC00CC03FF03FF00CC00CC00CC0EB
:10503C000CC00CC0000000000000000003000300C6
:10504C0007E00FE0186018001F000FC000E01860A8
:10505C0018601FC01F800300030003000000000045
:10506C000000000000001C002200220022001C6036
:10507C0001E00F803C0031C002200220022001C060
:10508C000000000000000000000000000000000014
:10509C00000003E00FE00C000C0006000F301FF0C6
:1050AC0019E018C01FF007B000000000000000005D
:1050BC00000000000000000003800380038001005A
:1050CC0001000100000000000000000000000000D2
:1050DC00000000000000000000000000000000C004
:1050EC0000C0018001800180030003000300030065
:1050FC000300030001800180018000C000C000009B
:10510C000000000000000C000C0006000600060069
:10511C000300030003000300030003000600060065
:10512C0006000C000C000000000000000000030052
:10513C00030003001B601FE0078007800FC00CC03A
:10514C000000000000000000000000000000000053
:10515C00000000000000000000000300030003003A
:10516C0003003FF03FF003000300030003000000C6
:10517C000000000000000000000000000000000023
:10518C000000000000000000000000000000000013
:10519C00000003800300030006000600040000006A
:1051AC0000000000000000000000000000000000F3
:1051BC0000003FE03FE000000000000000000000A5
:1051CC0000000000000000000000000000000000D3
:1051DC0000000000000000000000000000000000C3
:1051EC00000003800380038000000000000000002A
:1051FC00000000000060006000C000C000C0018022
:10520C00018003000300060006000C000C000C00DB
:10521C0018001800000000000000000000000F80C3
:10522C001FC018C03060306030603060306030605B
:10523C00306018C01FC00F8000000000000000008C
:10524C0000000000000003001F001F00030003000B
:10525C000300030003000300030003001FE01FE032
:10526C0000000000000000000000000000000F80A3
:10527C001FC038E03060006000C0018003000600F1
:10528C000C0018003FE03FE00000000000000000B0
:10529C000000000000000F803FC030E0006000E024
:1052AC0007C007C000E00060006060E07FC03F8086
:1052BC00000000000000000000000000000001C021
:1052CC0003C003C006C00CC00CC018C030C03FE007
:1052DC003FE000C003E003E000000000000000001D
:1052EC000000000000001FC01FC0180018001F8025
:1052FC001FC018E000600060006030E03FC01F80FD
:10530C00000000000000000000000000000003E0AE
:10531C000FE01E001800380037803FC038E03060C6
:10532C00306018E01FC00780000000000000000083
:10533C000000000000003FE03FE03060006000C073
:10534C0000C000C001800180018003000300030045
:10535C0000000000000000000000000000000F80B2
:10536C001FC038E0306038E01FC01FC038E030602C
:10537C00306038E01FC00F8000000000000000000B
:10538C000000000000000F001FC038C0306030600B
:10539C0038E01FE00F6000E000C003C03F803E001B
:1053AC0000000000000000000000000000000000F1
:1053BC000000000000000380038003800000000058
:1053CC000000038003800380000000000000000048
:1053DC00000000000000000000000000000001C000
:1053EC0001C001C0000000000000038003000600A3
:1053FC000600040000000000000000000000000097
:10540C000000003000F003C007001C0078001C00F6
:10541C00070003C000F00030000000000000000096
:10542C0000000000000000000000000000007FF001
:10543C007FF0000000007FF07FF000000000000013
:10544C000000000000000000000000000000000050
:10545C00000030003C000F00038000E0007800E00A
:10546C0003800F003C003000000000000000000032
:10547C0000000000000000000F801FC018601860C2
:10548C00006001C00380030000000000070007005B
:10549C00000000000000000000000000000003807D
:1054AC000C8008401040104011C0124012401240B5
:1054BC0011C0100008000840078000000000000028
:1054CC0000000000000000001F801F80038006C049
:1054DC0006C00CC00C601FE01FE030307878787884
:1054EC0000000000000000000000000000000000B0
:1054FC003F803FC01860186018E01FC01FE0187094
:10550C00183018303FF03FE00000000000000000B1
:10551C00000000000000000007B00FF01C703830D5
:10552C00300030003000300038301C700FE007C005
:10553C00000000000000000000000000000000005F
:10554C007F807FC030E030703030303030303030E1
:10555C00307030E07FC07F80000000000000000051
:10556C0000000000000000003FF03FF01830183041
:10557C0019801F801F801980183018303FF03FF0C1
:10558C00000000000000000000000000000000000F
:10559C003FF03FF01830183019801F801F801980A1
:1055AC00180018003F003F00000000000000000041
:1055BC00000000000000000007B01FF01870303031
:1055CC003000300031F831F8303018301FF007C09F
:1055DC0000000000000000000000000000000000BF
:1055EC003CF03CF01860186018601FE01FE0186079
:1055FC00186018603CF03CF0000000000000000057
:10560C0000000000000000001FE01FE0030003008A
:10561C000300030003000300030003001FE01FE06E
:10562C00000000000000000000000000000000006E
:10563C0003F803F8006000600060006030603060C8
:10564C00306030E03FC00F80000000000000000020
:10565C0000000000000000003EF83EF818E0198041
:10566C001B001F001D8018C018C018603E783E3803
:10567C00000000000000000000000000000000001E
:10568C003F003F000C000C000C000C000C000C3018
:10569C000C300C303FF03FF0000000000000000028
:1056AC0000000000000000007878787838703CF03A
:1056BC0034B037B037B03330333030307CF87CF81E
:1056CC0000000000000000000000000000000000CE
:1056DC0039F03DF01C601E601E601B601B6019E001
:1056EC0019E018E03EE03E60000000000000000001
:1056FC00000000000000000007800FC01CE03870A4
:10570C00303030303030303038701CE00FC0078013
:10571C00000000000000000000000000000000007D
:10572C003FC03FE018701830183018701FE01FC0D1
:10573C00180018003F003F000000000000000000AF
:10574C00000000000000000007800FC01CE0387053
:10575C00303030303030303038701CE00FC00780C3
:10576C0007B00FF00CE0000000000000000000008B
:10577C003FC03FE01870183018701FE01FC018E0D1
:10578C00186018703E383E18000000000000000041
:10579C0000000000000000000FB01FF03870303027
:1057AC0038001F8007E00070303038703FE037C0A1
:1057BC0000000000000000000000000000000000DD
:1057CC003FF03FF03330333033300300030003003D
:1057DC00030003000FC00FC0000000000000000019
:1057EC0000000000000000003CF03CF01860186065
:1057FC00186018601860186018601CE00FC00780F3
:10580C00000000000000000000000000000000008C
:10581C0078F078F03060306018C018C00D800D80C2
:10582C000D800700070007000000000000000000CA
:10583C0000000000000000007C7C7C7C3018339859
:10584C003398339836D816D01C701C701C701830D6
:10585C00000000000000000000000000000000003C
:10586C0078F078F0306018C00D80070007000D80CC
:10587C0018C0306078F078F00000000000000000E4
:10588C0000000000000000003CF03CF018600CC070
:10589C000780078003000300030003000FC00FC044
:1058AC0000000000000000000000000000000000EC
:1058BC001FE01FE0186018C0018003000300060001
:1058CC000C6018601FE01FE00000000000000000EA
:1058DC0000000000000003C003C00300030003002D
:1058EC000300030003000300030003000300030094
:1058FC00030003C003C000000000000018001800E3
:10590C000C000C000C0006000600030003000180D4
:10591C00018000C000C000C00060006000000000FA
:10592C000000000000000F000F0003000300030044
:10593C000300030003000300030003000300030043
:10594C0003000F000F000000000000000000020028
:10595C0007000D8018C030602020000000000000FF
:10596C00000000000000000000000000000000002B
:10597C00000000000000000000000000000000001B
:10598C00000000000000000000000000000000000B
:10599C000000000000000000FFFCFFFC0000040001
:1059AC000300008000000000000000000000000068
:1059BC0000000000000000000000000000000000DB
:1059CC0000000000000000000000000000000FC0FC
:1059DC001FE000600FE01FE0386030E03FF01F7008
:1059EC00000000000000000000000000000070003B
:1059FC0070003000300037803FE03860303030309D
:105A0C00303038607FE0778000000000000000003C
:105A1C00000000000000000000000000000007B0C3
:105A2C001FF0183030303000300038301FF00FC00D
:105A3C0000000000000000000000000000000070EA
:105A4C0000700030003007B01FF01870303030306C
:105A5C00303038701FF807B800000000000000005C
:105A6C0000000000000000000000000000000780A3
:105A7C001FE018603FF03FF0300018301FF007C0F7
:105A8C00000000000000000000000000000003F017
:105A9C0007F0060006001FE01FE0060006000600E7
:105AAC00060006001FE01FE00000000000000000E0
:105ABC00000000000000000000000000000007B81B
:105ACC001FF8187030303030303018701FF007B0BD
